:020000040800F2
:1000000000200010BD2B0308252C03084D460008D6
:10001000252C0308252C0308252C030800000000CC
:10002000000000000000000000000000252C030874
:10003000252C030800000000252C0308D53B0008F0
:10004000252C0308252C0308252C0308252C030840
:10005000252C0308252C03082947000869480008B7
:1000600029480008E9470008A9470008F1B5000839
:10007000E1B50008D1B50008C1B50008B1B5000868
:100080009DB5000889B50008252C0308252C030818
:10009000252C0308252C0308252C03086947000894
:1000A0007D2C0008892F0008B12B000805310008BD
:1000B000CD2E0008112E0008492D0008252C03081C
:1000C000252C0308252C0308252C0308252C0308C0
:1000D000252C0308013D0008853C0008093C000868
:1000E000E9460008252C0308252C0308252C0308C5
:1000F000252C0308252C0308252C0308252C030890
:10010000000000000000000000000000252C030893
:10011000252C0308252C030805FB0108E9FA010832
:1001200075B5000861B500084DB5000839B500087F
:1001300025B50008252C0308000000000000000081
:10014000252C0308252C0308252C0308000000009B
:10015000000000000000000000000000000000009F
:100160000000000000000000252C0308252C0308D7
:10017000252C030800000000000000000000000023
:0801800000000000252C03081B
:100188000C4B1B78DB0700D570470B4A1368002B14
:10019800FAD04FF47A7101FB03F39842F4D3074B7A
:1001A8001B781BB9064B99681B690B600023136009
:1001B800704700BFF9820020443F0020383F0020EC
:1001C800243F002090ED057A90ED004AD0ED066AB4
:1001D800D0ED014AD0ED047A90ED035AD0ED025AE1
:1001E800A4EE007AB0EE406AB0EE470AB0EE667A46
:1001F800A4EE867A67EEC07AA5EE407AE5EE867AB6
:1002080080ED057AC0ED067A704700BF38B50B4C13
:1002180023688BB15A68821A002A054604DA0BE073
:100228005A68AA1A002A07DB9A68226018461A68D0
:1002380090472368002BF3D138BD00BF3829002030
:10024800436A8269D154436A0169826B01338B42E4
:1002580028BF002343623AB370B4EFF311835022EE
:1002680082F31288866B3268D20704D5DBB283F337
:10027800118870BC7047716869B9D0E90942944225
:1002880018D085691544F56018D9A21A726084627D
:10029800002280F85420326842F00102DBB232605A
:1002A80083F3118870BC7047026D136843F08003B4
:1002B80013607047012280F85420D7E70469A21A16
:1002C80072608162E4E700BF034610B4446BD968EA
:1002D800406954B15A6C8C1A013A005D5DF8044BC0
:1002E80008BF0A46C0B25A6470471A6A805C013275
:1002F8008A4228BF2246C0B21A625DF8044B704792
:10030800836B13B190F854007047D0E90903181AA9
:10031800B0FA80F040097047D0E9091203699142A8
:1003280038BFC9188A1A816B013B19B149680A4458
:100338009A4201D2981A704700207047436B43B124
:10034800426C5B689A4291BF981AC0689B1AC018A1
:100358007047D0E907239A422FBFD01AC068801887
:10036800C01A70470A4B30B503F1140493F9002002
:100378005D78072AC8BF143A811804330D7313F83F
:10038800025C855413F8012C0A769C42EED130BDEC
:100398005438030803682DE9F041DD691DB12B4687
:1003A800BDE8F0411847002A174611DD04460E46FD
:1003B8000F4400E023689B68204698470028F9D03E
:1003C800236816F8011B1B6820469847BE42F1D1E6
:1003D800BDE8F08100232322027043708370C3704C
:1003E800704700BF0028F0B403DA2D230B70404299
:1003F8000131092804464FF0010307DD03EB8303AD
:100408005B00B0FBF3F2092AF8D883B10F48A0FBD0
:100418000326B4FBF3F2092A02F1570C02F1300764
:1004280009DD03FB1244F30801F801CBEFD10023E7
:100438000B70F0BC704703FB1244F30801F8017B12
:10044800E5D100230B70F0BC704700BFCDCCCCCCFD
:10045800884270B44FF0010442D301FB04F4B0FBAE
:10046800F4F58D42F9D2ECB142BB092D04FB15001D
:1004780005F1570605F130020EDDB4FBF1F403F87F
:10048800016B7CB1B0FBF4F5092D04FB150005F1F7
:10049800570605F13002F0DCB4FBF1F403F8012B48
:1004A800002CEFD100221A7070BC704703F8016B62
:1004B800B4FBF1F4002CF5D0B0FBF4F5092D04FBE6
:1004C800150005F1370605F13002EFDCB4FBF1F455
:1004D80003F8012B002CEFD100221A7070BC704772
:1004E8000546002AEAD1C0E72DE9F04714461D4623
:1004F800064600234FF47A722046294632F08EF9D8
:10050800DFF848814B4A4C4F88FB00310144C31740
:1005180082FB002CC3EB611188FB012887FB0027B5
:100528008444464AC3EBEC2CC1EB011E82FB0C2928
:10053800A0EB8E0E0744424A86F806E0C3EB274735
:100548004FEAEC7E08EB010ACEEBA90E82FB07828C
:100558004FEAE1780EEB4E0EC8EB6A18ACEBCE0C06
:10056800C8EB0818DFF8E8E086F804C0A1EB8801BA
:1005780071718EFB0010F917C1EBE21240F2B55110
:1005880001FB1272C3EBE050B2F5896F4FEA8007A6
:100598003FDA40F2DA239A4243DCB2F5B77FB4BFC0
:1005A8004FF0000E4FF0010E4FEA4E08254B08EBB6
:1005B8000E0103EBC1031FFA8EFC588D224908EB8C
:1005C8000E0301EBC30116310B2301E031F8020DD4
:1005D80090421BDD013BF9D11A4BC64403EBCE0E0A
:1005E8000123BEF81400B37007F2B2770132121A71
:1005F800BC44F270A6F800C0204629464FF47A722F
:10060800002332F00BF93281BDE8F0870133DBB209
:10061800E9E74FF0030CE64640F296504FF0060823
:10062800CCE74FF0020CE64640F229404FF00408B0
:10063800C4E700BFC5B3A29107452EC2ABAAAA2A38
:1006480073B06D1654380308683803088988888899
:10065800792D031103685A1C02601970704700BF96
:100668002DE9F047089C2578002B804689460CBF69
:100678004FF0200A4FF0300A661C25B3002A26DD09
:10068800334601E0024698B113F8011B501E0029B9
:10069800F8D1971E60B13D46013D51464046C847D6
:1006A8006B1C002BF8DC257827EAE770013045B190
:1006B800041B29464046C847301916F8015B002D2F
:1006C800F7D1BDE8F087002A03DC2846F9E70020C7
:1006D800EEE7571EDFE700BFD0E9012300EB8301F7
:1006E80001339342D0ED037A81ED040A836004BF9D
:1006F8000023836000EB830393ED047A036870EEB4
:10070800277A9A42C0ED037A77EEC77AC0ED037A6A
:100718000CDA013307EE103AF8EEC76AB7EE007A42
:1007280087EEA60A036030EE070A704707EE102A24
:10073800B8EEC77A87EE870A704700BFD0ED057A12
:1007480090ED013AD0ED003AD0ED064A90ED024A1C
:1007580090ED077A90ED035A90ED086AD0ED045AAF
:10076800C0ED067AF0EE406A27EE830AC0ED056A0E
:10077800A3EEA60A80ED087AA4EE240AA5EE470A9D
:10078800A5EEC60A80ED070A704700BFD0ED007AD3
:1007980090ED017A30EE670AE7EE007AB0EE670A6C
:1007A800C0ED007A704700BF704700BF0A4491420D
:1007B80015D030B40139551E41F2210211F8014F0C
:1007C800082380EA042004044CBF82EA4000400069
:1007D800013B80B2F7D18D42F0D130BC70477047F1
:1007E8002C22022302704370704700BF012380F857
:1007F80048307047437F33B1012B03D14FF4006376
:100808008382704770474FF4806383827047037810
:10081800407840EA032010FB01F04FF4807190FB10
:10082800F1F000F30F0000B270477047704743784B
:10083800007840EA032010FB01F04FF4807190FB30
:10084800F1F000F30F0000B270472DE9F04FDFF828
:10085800DCC1754CDCF800502288B4F90AA0C2EB60
:1008680025135200C2EBE502B4F902505B436A4318
:10087800B4F904501B135D43AD1305EBE225B5F540
:10088800FA324FEAE57B85B04BF1FF33CDE900231F
:10089800DDE900325343009AA561A2FB0289CDE944
:1008A8000201B4F908200199009809EB4309514362
:1008B800D31700FB0311A2FB00230B444FEAEA7B8A
:1008C8000AFB09F11F0308FB0B13AAFB08011944D3
:1008D8004FEA102A4AEA016A16034FEA212B47EA2F
:1008E80012571AEB0602E6884BEB070312F1000ACF
:1008F80043F5004BAAFB060106FB0B114A10CB1768
:1009080052EA030100F08E80B4F91060009806FBEB
:1009180009F1F71708FB0711A6FB08673944B4F972
:100928000E808B4601994FEAE87908FB01F100FB3C
:100938000911A8FB00898944DCF804104FEA4947EB
:10094800C1F5801C47EAD837B2464FEA4846B4F9A1
:100958000C801AEB060A66464BEB070BF7174FEAB3
:10096800C806019600260096F907DDE900674FEAF8
:10097800CC7016EB0A0647EB0B0741EA5C01801BBB
:1009880061EB070140F6354C8946A0FB0C010CFBD6
:10099800091131F043FFB4F91620B4F914A04E132D
:1009A800470B47EAC14702FB06FCD31707FB03CCFA
:1009B800A2FB07236344564307FB0366A2FB0723F6
:1009C8003344560E46EAC31632184FEA636747EBBC
:1009D800010380460AFB01F14FEAEA7B08FB0B178B
:1009E800AAFB08013944C60C46EA413612EB060850
:1009F8004FEAE147B4F9122043EB07094FEA1821FF
:100A080041EA096113010B44029A0AB11B0A1360F7
:100A1800039B23B105EB850580352D121D6005B0BC
:100A2800BDE8F08F0023EFE7883300200024002082
:100A380070472DE9F041334B334E1A897489B6F962
:100A48001450B6F90480B6F90E70B6F920C0DB6808
:100A5800121B34895443E213B6F912401544E402D8
:100A680094FBF5F4B6F902501444A4F57A6E0EFB23
:100A78000EF20EFB05F50EFB08FEB6F90C80F461CC
:100A88001213574302FB08F2121402EB6E32ED12F6
:100A980005EBE7270232B6F90050B6F806E09210E7
:100AA80002F5004207EB85070EFB02F207FA0CF786
:100AB8004FEAD23E02374CF25032A3EBA70742FA74
:100AC8000CF37B4355BF5B00B3FBFEF3B3FBFEF3B4
:100AD8005B0078B11A1202FB02F540F6DE326A4377
:100AE8000A4D12145D4302EB254202F6CF6203EB76
:100AF8002213036021B10A235C43083424110C60DB
:100B0800BDE8F081002400205033002043E3FFFFBC
:100B18006D4B2DE9F04F1C696C4BB3F80AE0B3F844
:100B280004809A894FEA0E2AB4EB0A044FEA1E6B36
:100B38004FF0000587B065EB0B05CDE9004507468A
:100B4800009C1889019EA0FB044500FB0655E0099E
:100B580040EA45604FEA08448C46E9114FEA1845D7
:100B680010EB0408D888009C41EB0509CDE90489FD
:100B7800A0FB0445B3F8028000FB0655200A40EAB2
:100B880005604FEAC83429124FEA584510EB0408AB
:100B980041EB05090099A2FB010102FB06114FEA8E
:100BA800D05A4AEA412A1AF5FA634FEAE15B4BF157
:100BB8000004B3F5FA6FCDE9023474F10003424E34
:100BC80064DA0524AAFB040104FB0B1100FB0BF4F7
:100BD8000AFB0144DDE90423A0FB0A0121444D106E
:100BE8004FEA3004121B4FEA900463EB050344EA12
:100BF8008174B8EB0408CDE90423DDE902343448F4
:100C08004FEAA10569EB05094FF0FF31834274EB08
:100C1800010326DA40F6AC501AEB00024FF000014F
:100C28004BEB010302FB03F1A2FB022303EB41039D
:100C3800D400DD00101B45EA527563EB0501DDE9C0
:100C4800044524184D41CDE904450B24A2FB0401B9
:100C580004FB031149104FEA3000B8EB000869EBB8
:100C68000109DDE900325343009ADDE90201A2FBE4
:100C780002AB0BEB430B4FEADA7242EA4B02801AE3
:100C88004FEAEB7361EB0301CDE9020197B171699A
:100C9800A1FB082301FB0933540D5D1544EAC32465
:100CA800DDE90423A21A65EB03031D46D30B43EACF
:100CB80045433B60BCF1000F02D0029BCCF80030EA
:100CC80007B0BDE8F08F00BF002400207433002077
:100CD80024FAFFFF37B504466A460D460C30032157
:100CE8002CF0ACFA024690B1B4F91A106846FFF736
:100CF8008EFD2880B4F91E100DF10200FFF787FD64
:100D0800A880B4F91C1001A8FFF781FD688010467F
:100D180003B030BD07B5F7216A462CF08FFA9DF86D
:100D280001309DF800100C4A1B0143EA01339DF87D
:100D3800021043EA111353609DF804309DF8031024
:100D48001B0143EA01339DF8051043EA11131360B0
:100D580003B05DF804FB00BF0024002070B4D0E9A4
:100D68000041057B02690223AB4063600B684FF6C4
:100D7800FE7003400B60EFF31183502181F312885A
:100D8800966B3168C9071CD4706870B9D2E90941FB
:100D98008C4213D095690D44F56017D81469611A0F
:100DA80071609062002182F85410326842F00102AA
:100DB800DBB2326083F3118870BC7047012182F87E
:100DC8005410DBB283F3118870BC7047611A7160EC
:100DD8009462E7E770B40468037B2268022101FA91
:100DE80003F31A4217D002691249134802EB420270
:100DF80001EB421205785068016875B9C5685289D7
:100E080028684FF6FE7630402860C868D24392B210
:100E18000240CA60636070BC7047406902684FF660
:100E2800FE752A400260CA684FF6FF600240CA6039
:100E3800F0E700BF747600207076002070B4174B7E
:100E48001D784DB3164A174B11784FF4987202FB70
:100E5800053540F20D3610E058681C894460046876
:100E680044F001040460A2F84860D06803F5987360
:100E780040F48070AB42D0600ED01A680029EBD1E4
:100E88005162B3F82C01D4682043D06003F59873FD
:100E980023F8041CAB42F0D170BC70477479002071
:100EA800707600207879002010B40268047B1168FD
:100EB8000223A340194209D00649406800240C7057
:100EC80001684FF6FE742140016053605DF8044BE1
:100ED800704700BFE14A00202DE9F0478C4A8D4B4E
:100EE80012781C78D207064648D58B4D012C00F0A5
:100EF80091801ED3022C40F09B808849884A09883B
:100F08001288884F914201D901241C70EB7AFBB1F9
:100F18002B89EBB1844B1B78D3B11EF029FE002836
:100F280000F0E2802B7B83422CBF012300233B701F
:100F38000FE0DFF8E8C17B4F7C4CBCF8000022884A
:100F4800697B521A8242DFDAEB7A0024002BDFD168
:100F58003B782A79632A07D87549022C087800F06B
:100F6800B880002840F0A0807249AA7A9C4238BF15
:100F78001C460C70002A44D1BDE8F087DFF89CC1FC
:100F8800654DBCF80000BCF8021095F803E06A4F04
:100F9800411A0029A4F10302B8BF4942704597F8E5
:100FA8000080D2B211D32F7887420ED3012A45D9B7
:100FB800B8F1020F9AD15C48604A00789080022903
:100FC800CCBF00210121D18090E7B0EB4E0FEDDCC2
:100FD800012A40F28C800229EADC0324514F52484E
:100FE80052494F4A1C70B8F1020F4FF000033C7091
:100FF80003700B80138089D1504A01219380D180DE
:1010080084E7012C6BD0022CB6D10720BDE8F0474D
:1010180028F00CB9424A41491288687B0988121A9B
:10102800914207DD414A12888A423CBF00241C7065
:101038003C4F6BE702241C703A4F67E70229B7DC84
:1010480095F800E090FBFEFE0EF1010EBEF1080FD0
:10105800DFF8D4A0AA786978DFF8C490334C314F10
:10106800A8BF4FF0080E8AF800E01FFA8EFA11FBAD
:101078000AF112FB0AF2DFF8B8A0A9F8001092B240
:1010880000214FF06409B8F1020F228039701970FD
:10109800CAF804108AF801907FF452AF274A012158
:1010A800A2F804E0D18048E74868301A244EB042DC
:1010B800C8BF4A703FF758AFC2F16402214E00FB27
:1010C80002F086FB0062C017A0EBA25064304870A3
:1010D8004AE70028E8D101274E600F70ECE70820A6
:1010E800BDE8F04728F0A2B802233B7031E7032C93
:1010F8007FF471AFB8F1020F9AD10B4A0F4B1278F7
:101108009A800229CCBF00210121D980054FFDE634
:10111800F9820020525D0020FC4800207C5000200D
:10112800565D0020605D002080560020545D002040
:10113800585D0020FA4800205447002058470020F6
:101148007F9698006BCA5F6B2DE9F04F8E4F2DED9F
:10115800028B3D6815F0040883B00ED08B4C237EBB
:101168005BB1E66946F2A713861B9E4200F2228114
:1011780003B0BDEC028BBDE8F08F15F0100AF7D074
:10118800824CE66946F2A713861B9E42F0D9E061BD
:10119800C146B8F1000F40F01081DFF810A27C4A78
:1011A800DAF8143092ED088A002B00F006835046D6
:1011B800984710F1030F804600F08182002880F2E2
:1011C8002B82B0F1FF3F00F0F0826FF00105CAF802
:1011D8001C50DFF8D0B1DBF80400A8EB000030F0B9
:1011E80081FF02460B4630F0E7FF65A3D3E90023F1
:1011F80030F0E2FF31F07AFA94F8393004EB430228
:101208000133B0F5C85FDBB2A8BF4FF4C850052B57
:10121800908784F8393000F06E8294F84630CBF825
:1012280004809AF82810002B00F0E882E08FA38F42
:10123800B4F840200344B4F842001344B4F84420FE
:10124800034413441BB2B3F5FA4F1846A8BF4FF432
:10125800FA4020EAE070AAF83000B9B9002D15DD8F
:10126800B3F5167F80F29382DAF82C30AB4280F225
:10127800B48205EB8503474AC3EB031382FB0312D1
:10128800DB17C3EB6213CAF82C300021DFF818E132
:101298009EF80020182A00F01882192A20D1DAF8BE
:1012A8002030DFF80CC1DAF82C80ACF80050002BA5
:1012B800ACF80210ACF8048040F32B82002D40F308
:1012C8002882B0F5167F80F22482002900F09382EC
:1012D800A845D4BF4FF000084FF00108ACF80680CD
:1012E800DAED067AB4EEE78AF1EE10FA00F13E8202
:1012F800002DC0F2508207EE905AF8EEE77A182ACD
:1013080027EE888AFDEEC87A17EE903ACAED087A79
:1013180000F06582002B40F3E8811F4AB2F90020F3
:101328009A4200F3E2811D49B1F900109942C0F2D6
:10133800DC818A1AC91A07EE901AB8EEE77A07EE26
:10134800902AF8EEE77AF7EE006A87EE276A3D689A
:1013580013499EF8002005F0040807EE109A76EE6F
:10136800C66A07EE903AB8EEC77AF8EEE77A27EE43
:10137800267AA6EE277AFDEEC77AC1ED007A72E0EA
:101388009A9999999999B93F845600200024002088
:10139800843A00201F85EB51B2330020B03300207F
:1013A800885600200000002054470020584800209C
:1013B80058470020E06105F0100ADFF87C93D64A10
:1013C80099F80610B2F800B0236A0139B3FBF1F3BB
:1013D800BBF1000F00F0E680D0489FEDD10A01680C
:1013E800DFEDD00A019200298946B8BF01F107094B
:1013F800A1EBE9099944B9F1000F4B46B8BF09F1CF
:101408000703DB1007EE903AF8EEE77AC0F8009091
:1014180027EE800A31F0F4FFF7EE007A77EEC07A13
:101428009FEDC10AA36A019A67EE807A994518BFB1
:101438000BF1FF3BFDEEE77A4FF0000316BF1FFAF2
:101448008BFB4FF0000BC4F82890C4ED097AA2F882
:1014580000B0E36223634FF00009BAF1000F7FF494
:101468009CAEB24B1A78AB074FD5D4ED127ADFEDAC
:10147800B05AE36CB8EE677A67EE255A002B00F095
:10148800148107EE903AF8EEE76AD4ED167AB8EED2
:10149800E76AC6EE267AA749A74B9B89D1ED004A91
:1014A80094ED0B5A9FEDA54A94ED0C6AA44927EEDA
:1014B800247A06EE903A67EE277AF6EE004AB0EE06
:1014C800457AA7EEA47A9F4BF8EEE66A5B6A66EE69
:1014D800846AF0EE474AB7EE007AA5EEA46A77EE82
:1014E800665A07EE103AB8EEC77A77EE857A27EE95
:1014F800257AC4ED0B7AF0EE477AE6EE267ABDEE51
:10150800E77AC4ED0C7A81ED007A0E2A13D194EDB6
:101518000B7AD4ED0C7A8C4BE16CA26D92FBF1F254
:10152800BDEEC77AFDEEE77A17EE101A1A8017EEAD
:10153800902A59809A800023C4E91433A365C4E92A
:101548001233B8F1000F7BD19FED806A7A4BDFED43
:101558007B5A5B89D4ED0B6A07EE103AB8EEC77A6E
:10156800F7EE007AE7EE657A66EEA56A67EE867AA8
:10157800E7EE267AB0EE670AC4ED0B7A31F0F4FE96
:1015880080EAE073A3EBE073042B40F38C8000281F
:1015980040F38E8005386E4B186003B0BDEC028BAB
:1015A800BDE8F08F07EE903A9FED5D0ADFED5D0A2A
:1015B800DFF890B1F8EE677AB7EE008A27EE800A76
:1015C80031F01EFFDFED587A38EE400A20EE270A88
:1015D80031F0CAFEB9F80830DFED586A07EE103A64
:1015E800636AC01AB8EEC77A07EE900AA7EE668A51
:1015F800B8EEE70ADBED097AF8EEE77A20EE080A9A
:1016080067EEA67AA7EE270A31F0AEFE4C4BCBF870
:1016180024008146186020E74E4B626B1B684E49D8
:10162800CAF82430531C052B41F82200636300F0EC
:10163800A58094F83830002B40F0A5800546C6E513
:10164800354B1B88002B7FF493ADE36DDFED436AC8
:10165800434AC4F85C90A9EB030307EE903A07EEFF
:10166800106AF8EEE77AB8EE477A67EEA67A87EE60
:10167800876AFDEEC67A17EE903A93421CDB40F279
:10168800DC52934242DC83EAE372A2EBE372092A5A
:101698007FF75AAF002B40F3A6800A3B07EE903A3B
:1016A800B8EEE76A52E7002075E7DFED287AF2E640
:1016B8003FF471AF05306EE79FED2A6A46E73D6853
:1016C8001A4B05F004081A78CDE6DAED067A1E4BB7
:1016D800B4EEE78AF1EE10FAD8807FF509AE4FF044
:1016E800FF325D80CAF820209A803D689EF800206D
:1016F80005F00408B7E600220123CBF8048084F83B
:10170800392084F846309AF828108FE59FED166A3C
:101718001CE74FF00008E1E5EA3C0020000000204B
:1017280008942537B1DC423ED048874A5447002008
:10173800BD378635B83A0020AC5C00206F12833A7A
:1017480088560020342B0020584700200000000055
:101758008C56002090630020D86C00200024744927
:1017680024FAFFFF0040BAC40040BA443D684FF075
:10177800FF3305F00408CAF8203074E6002201237C
:10178800626384F838302EF0D3F805461FE501214E
:101798008AF828107AE54FF0FF33182ACAF8203063
:1017A800A3D11D4A558093809FE71C4BCAF81C00A3
:1017B8001B68CAF8243005460BE5DFF864E09EF89C
:1017C80000204FF0FF33182ACAE907338DD1124A97
:1017D8004FF6FF715380918087E7002156E50E4A46
:1017E8005580938096E53FF4AFAE0A3307EE903A02
:1017F800B8EEE76AAAE64FF001086FE54FF6FF7307
:10180800AAF830304FF0FF3000297FF43FAD002DAB
:101818003FF72AAD3AE500BF584700209063002003
:10182800544700202DE9F843314B1B685B0701D46E
:10183800BDE8F8832F4C304D94F86090B9F1010F52
:1018480040D1EB69284698472B69284698472B6A68
:1018580004F1680004F164019847284BE76E9B790E
:10186800266AD4E9192007F101089845236FAA626E
:1018780003F1010204BF84F818904FF00008032A0E
:10188800E8622AD01E49226794F8742041F82300A0
:1018980052BB04EB870704EB8803B8679A6FAB89E0
:1018A800C4F86C80B61A30440022206284F86020A4
:1018B800002BBDD0134A642B1268B8BF6423136190
:1018C800BDE8F8836B6928469847AB69284698476E
:1018D8000122EB8984F86020EAE7094B012298602D
:1018E800002384F8742023672EF00AF8D1E700BF9C
:1018F8008456002000240020342B0020AC5C0020FB
:10190800CC6C0020B038002030B50446006D617101
:101918000368A26823F00103036087B0A3790092EB
:1019280013F0040F4FEA03324FEA032314BF4FF4B6
:101938008055002503F4806302F400520195CDE937
:101948000223002511F0010305952ED104930823E5
:101958008D07694648BF04932FF03AFD6079236DDF
:10196800A17900F00202002A15BF4FF440324FF46B
:1019780080324FF40034002410F0010F586808BF7B
:101988002246CC074CBF024320EA02025A609A68FA
:1019980009074CBF42F0080222F008029A601A6850
:1019A80042F001021A6007B030BD042304930C23EF
:1019B800CEE700BF30B50446006DA160036823F090
:1019C80001030360A379657987B013F0040F4FEA28
:1019D80003324FEA032303F4806302F40052CDE993
:1019E8000223009114BF4FF480510021EB0748BF38
:1019F800042301914FF00001CDE9041154BF0823DD
:101A08000493694648BF0C23AD0748BF04932FF0E1
:101A1800DFFC6079236DA17900F00202002A15BF6E
:101A28004FF440324FF480324FF40034002410F069
:101A3800010F586808BF2246CC074CBF024320EA72
:101A480002025A609A6809074CBF42F0080222F065
:101A580008029A601A6842F001021A6007B030BDA5
:101A68002DE9F341056906460F467DBBD0F8008095
:101A7800C8F30A0323B30023D6F8008001932CF09F
:101A880065FB042819D1224C236943F00103236123
:101A9800BBB2A8F800302CF059FB04282ED108F16D
:101AA80002030193019B3F0C1F802CF04FFB23691D
:101AB800042823F00103236125D06FF0010505E018
:101AC8002CF044FB042805D04FF0FF35284602B01F
:101AD800BDE8F0810E4C236943F002032361C4F88A
:101AE8001480236943F0400323612CF02FFB236902
:101AF800042823F002032361BDD0E5E7236923F01E
:101B080001032361D9E7336804333360DEE700BF9C
:101B180000200240F8B504460D468E180027B5424D
:101B280001D12069F8BDE368591CE160234415F828
:101B3800012B1A720429F2D1A1682046FFF790FF01
:101B4800C4E90370EBE700BF694B6A482DE9F0412F
:101B58006422694E694C012500211D7031F02AFA72
:101B6800674A6849002330460B60136026F086FBFD
:101B78002946052026F0D0FB6779634B391C1A8D5E
:101B8800624B93FBF2F318BF0121642BB8BF6423A7
:101B98000720C6F8143126F0BFFB94F8068018F128
:101BA80000014FF0080018BF012126F0B5FBA37A09
:101BB800002B76D0564D002F7DD118F1000118BFAB
:101BC8000121544C092026F0A7FB2368D90700F10E
:101BD80083809A0771D40121042026F09DFB4E4B87
:101BE8000620197826F098FB01210A2026F094FB9C
:101BF80021680B20C1F3C00126F08EFB21680C2060
:101C0800C1F3800126F088FB21680D20C1F3001183
:101C180026F082FB236813F0140F14BF0121002162
:101C28000E2026F079FB2B685B050CD501210F20CF
:101C380026F072FB394B1B7A083B012B9CBF4FF4F3
:101C4800FA63C6F81C336988102001F0010126F0F8
:101C580063FB29681120C1F3804126F05DFB2968E8
:101C68001220C1F3C06126F057FB0121172026F08E
:101C780053FB0121132026F04FFB0121142026F0ED
:101C88004BFB0121152026F047FB4FF4804027F03D
:101C9800D7F9011C18BF01211620BDE8F04126F034
:101CA8003BBBE37A1A4D002B85D1296811F48021BA
:101CB80087D0002F81D0012183E70121022026F05F
:101CC8002BFB174B5B6A642BB8BF642301210320ED
:101CD800B36726F021FB7EE7124B1B680121642BBA
:101CE800B8BF64230846736426F016FB236870E7C0
:101CF800145E0020B05D002080010020FC48002018
:101D0800185E0020AC5D0020C464002040420F0033
:101D1800486A002084560020A8340020986C0020CF
:101D280098560020386A00204B0901F01F0150F82E
:101D38002320012303FA01F1114214BF18460020A1
:101D4800704700BF022828BF022010B4084C094B76
:101D5800207000EB8002C0EBC20207495DF8044B1B
:101D6800013003EB4203C0B20B6027F03DBB00BF5C
:101D7800A74E0020CA4E0020BC4E0020DFED317A6D
:101D880030EE277AFDEEC76A16EE903A2033402BE4
:101D980002D99FED2D0A7047B4EEE70AF1EE10FA6A
:101DA8004DDD9FED2A6ADFED2A6A01E0B0EE677A21
:101DB800B4EEE67AF1EE10FA77EE467AF6DC9FEDAD
:101DC800257AF4EEC77AF1EE10FA35D5DFED1F6A01
:101DD8009FED217A01E0F0EE407AF4EEC77AF1EE59
:101DE80010FA37EEA60AF6D4DFED167AB4EEE70A53
:101DF800F1EE10FA1BDCDFED197AB4EEE70AF1EE2A
:101E080010FA44BFDFED137A37EEC00A60EE006ABD
:101E18009FED136A9FED137ADFED137AA6EE867AAB
:101E280020EE266AE6EE877AA6EE270A7047DFEDEF
:101E38000F7A37EEC00AE9E7B0EE670AD4E7F0EEAA
:101E4800477ABCE7DB0FC93F00000000DB0FC94041
:101E5800E4CB1641DB0F49C0E4CB16C1DB0FC9BF89
:101E680092E741B99730083C15A82ABEDB0F4940D4
:101E7800DFED2E7AB4EEE70AF1EE10FA4ADDDFED77
:101E88002C6A9FED2C7A01E0B0EE670AB4EEC70A1F
:101E9800F1EE10FA70EE667AF6DC9FED277AF4EE32
:101EA800C77AF1EE10FA3ED5DFED216A9FED237A6D
:101EB80001E0F0EE407AF4EEC77AF1EE10FA37EE70
:101EC800A60AF6D4DFED1E7AB4EEE70AF1EE10FAB0
:101ED80014DDDFED167A37EEC00A60EE006A9FED7A
:101EE800196A9FED197ADFED197AA6EE867A20EE47
:101EF800266AE6EE877AA6EE270A7047DFED147A9F
:101F0800B4EEE70AF1EE10FA44BFDFED0B7A37EED4
:101F1800C00AE2E79FED087AF0EE407AF4EEC77A5D
:101F2800F1EE10FAC0D4B0EE670ACBE7DB0F4940F8
:101F3800DB0FC940E4CB1641DB0F49C0E4CB16C127
:101F4800DB0FC93F92E741B99730083C15A82ABE74
:101F5800DB0FC9BF38B5434B9A89D989914224BF51
:101F680000229A81598A1A8A914224BF00221A8231
:101F7800DA788AB3072A2FD03B493C4D91F85000B4
:101F8800012400210A282C709C70D9713DD00C289E
:101F980065D0DFED377A8ABB364C9FED370AA278D9
:101FA800002918BFF0EE407A062A04D8334901EB1D
:101FB800820191ED1D0A217959B3013A032A0AD801
:101FC800F7EE007A87EE800A31F0CEF9238898423E
:101FD80028BF1846208038BDD97921B198780428BF
:101FE800B8BF04209870204890F850000A280CD0F8
:101FF8000C28CED1DFED227A002ACDD0072ACBD00B
:102008000A282CD1DFED1F7AC6E70A20DFED1E7AF9
:10201800C1E79B78154907EE103A0A78B8EEC77AF7
:1020280067EE277A07EE102AB8EEC77A27EE277AE6
:10203800B4EEC70AF1EE10FACDDD80EE277AFDEE98
:10204800C77A17EE903A102BA8BF1023012BB8BF00
:102058000123DBB29A4238BF1A460A7038BDDFED59
:102068000B7A99E72C6700204C6700204E2F002040
:102078006F1203394C7600206F1203385438030866
:102088000AD7A3390F506E3A5304E9386F12833ACE
:1020980038B50C4C0C4DAC4206D26168204614345D
:1020A80026F06CF9AC42F8D3084A094B094C146085
:1020B800002209491A705A7008480860BDE838407B
:1020C80023F032B8C0A4030884A90308BC4E00203A
:1020D800A74E0020CA4E0020D4560020DA4F002018
:1020E800F0B40C292BD8DFE801F0752A2A2A502AE7
:1020F8002A2A2C2A2A2A0700046AB2F80CC09788D0
:1021080016686B4D24F480540462036A4468C169FC
:1021180023F4005343EA0C3321F4E641A84243EA8E
:10212800073341EA062100F0BC8005F50065A842A6
:1021380000F0B78092684460C16102640362F0BC39
:102148007047046AB2F80CC097881668584D24F492
:1021580080740462036A4468C16923F4007343EA23
:102168000C2321F07301A84243EA072341EA060140
:1021780000F0848005F50065A8427FD0926844602D
:10218800C161F0BCC26303627047046AB2F80CC054
:1021980097881668464D24F010040462036A446860
:1021A800816923F0200321F0807143EA0C1321F4A4
:1021B800E641A84243EA071341EA06214BD005F558
:1021C8000065A84247D0926844608161F0BC826390
:1021D80003627047046A9389B2F804C01768344EE2
:1021E80024F001040462046A4568816921F480319D
:1021F80024F0020443EA0C0321F07301B04243EADD
:10220800040341EA07010ED02A4CA0420BD004F582
:102218004064A04207D004F58064A04203D004F5CE
:102228008064A04210D1D489168A578AB2F806C0B1
:1022380023F00803234325F4407523F0040346EAFA
:1022480007044CEA03032543926845608161F0BCAA
:10225800426303627047D589178AD68823F08003C2
:1022680043EA051324F44064558A23F0400344EA02
:10227800870443EA061344EA8504A4E7D589178A44
:10228800D68823F4006343EA052324F44054558A8E
:1022980023F4806344EA071443EA062344EA051456
:1022A8006CE7158A24F4804444EA851442E700BFA9
:1022B800002C0140003401402DE9F84FDFF8188266
:1022C8007B487C4C7C4E7D4FDFF81092DFF810A2E3
:1022D8004FF48C72002130F06DFE454678497948FC
:1022E800DFF800C2DFF800E208F5EE7222E0B3F191
:1022F800804F00F0B880A34200F0BC80B34200F0E9
:10230800BB80BB4200F0C680634500F0C5807345C2
:1023180000F0C4804B4500F0C480534500F0C480F1
:10232800DFF8C8B15B4508BF4FF4802307D01C35E0
:10233800AA420CD02B688B42D9D14FF40063D0F855
:1023480018B01C3543EA0B03AA428361F2D15E4FF1
:102358005E4E4FF0030A4FF0020998F80630002B42
:102368007AD098F804301C09013C052C03F00F03BF
:1023780072D837F8140040FA03F2D2076CD54FF040
:10238800010B0BFA03F3013B184030F097FA504B5E
:102398001B5D184416EBC0045ED056F830304D482B
:1023A80098F8081003F13842920A825C02F01F0084
:1023B8005209022A0BFA00FB66D0032A5ED0012AD2
:1023C80004D1404842694BEA02024261B4F804C0B1
:1023D800BCFA8CF2C2F11F0292B2D00803EB800063
:1023E80002F00702046A92004FF00F0E0EFA02FE86
:1023F80024EA0E040462046A01FA02F22243026229
:102408004FF0010E00220EFA02F434EA0C0120D13A
:102418005000D3F808B00AFA00F1C9430BEA010BDF
:10242800C3F808B0D3F808B0C3F808B0B3F804B0DC
:102438002BEA04049C809C88A4B29C801C680C40F5
:102448001C601C6809FA00F020431860D868014035
:10245800D9600132102AD6D108F11C0845457FF40D
:102468007CAFBDE8F88F0123D0F81CB043EA0B031A
:10247800C3615CE70223F7E70423F5E71148C26963
:102488004BEA0202C261A1E70E4882694BEA0202E6
:1024980082619BE71023E7E72023E5E74FF4005329
:1024A8004DE74FF480334AE74FF4003347E700BF66
:1024B800AC63002000040040000800400010004009
:1024C800002C01400010024068630308F4650020F6
:1024D80074630308846103088C61030800400140A9
:1024E800004401400014004000340140004801400D
:1024F80000B9704703682DE9F04F03F138449C4E4A
:10250800A40A0125345D04F01F066409022C05FAAB
:1025180006F500F07481032C00F06C81012C00F0AA
:1025280022818088B0FA80F4C4F11F04A4B2E508BF
:1025380003EB850504F007042E6AA4000F27A740C3
:1025480026EA07062E622E6A01F00307A2407C1EC7
:102558003243012CC1F3810EC1F300182A62C1F382
:10256800411140F20981C6070BD51A6822F003020F
:102578001A601A683A431A60DA6822F003020A43BA
:10258800DA6085070DD51A6822F00C021A601A68FD
:1025980042EA87021A60DA6822F00C0242EA8102F3
:1025A800DA6044070DD51A6822F030021A601A68FA
:1025B80042EA07121A60DA6822F0300242EA01128F
:1025C800DA6002070DD51A6822F0C0021A601A688C
:1025D80042EA87121A60DA6822F0C00242EA8112DF
:1025E800DA60C6060DD51A6822F440721A601A68B5
:1025F80042EA07221A60DA6822F4407242EA0122AB
:10260800DA6085060DD51A6822F440621A601A68E5
:1026180042EA87221A60DA6822F4406242EA81229A
:10262800DA6044060DD51A6822F440521A601A6816
:1026380042EA07321A60DA6822F4405242EA01326A
:10264800DA6002060DD51A6822F440421A601A6848
:1026580042EA87321A60DA6822F4404242EA81325A
:10266800DA60C6050DD51A6822F440321A601A6875
:1026780042EA07421A60DA6822F4403242EA01422A
:10268800DA6085050DD51A6822F440221A601A68A6
:1026980042EA87421A60DA6822F4402242EA81421A
:1026A800DA6044050DD51A6822F440121A601A68D7
:1026B80042EA07521A60DA6822F4401242EA0152EA
:1026C800DA6002050DD51A6822F440021A601A6809
:1026D80042EA87521A60DA6822F4400242EA8152DA
:1026E800DA60C6040DD51A6822F040721A601A68BA
:1026F80042EA07621A60DA6822F0407242EA01622E
:10270800DA6085040DD51A6822F040621A601A68EA
:1027180042EA87621A60DA6822F0406242EA81621D
:10272800DA6044040DD51A6822F040521A601A681B
:1027380042EA07721A60DA6822F0405242EA0172ED
:10274800DA6002040DD51A6822F040421A601A684D
:1027580042EA87771F60DA6822F0404242EA8171D4
:10276800D960BDE8F08F034C666935436561D8E6EA
:10277800846103080010024000224FF0010C4FF062
:1027880003090CFA02F636EA00042ED15400D3F8F5
:1027980008A009FA04F5ED4305EA0A0AC3F808A0F7
:1027A800D3F808B00EFA04FA4AEA0B0AC3F808A0EC
:1027B800B3F804A02AEA06069E80B3F804A008FA33
:1027C80002F646EA0A06B6B29E801E682E401E60D1
:1027D800D3F800A007FA04F646EA0A061E60DE6887
:1027E80001FA04F435402C43DC600132102AC8D1C8
:1027F800BDE8F08F044CE6693543E56191E6024C8B
:10280800A6693543A5618CE60010024003682DE9EE
:10281800F04F03F13845A94EAD0A0124755D05F066
:102828001F066D09022D04FA06F400F08D81032DB0
:1028380000F08581012D00F03B818088B0FA80F49A
:10284800C4F11F04A4B2E50803EB850504F00704EE
:102858002E6AA4000F27A74026EA07062E622E6AD2
:1028680001F0030702FA04F47A1E3443012AC1F383
:10287800810EC1F300182C62C1F3411140F222818C
:10288800C60700F10881850700F1F680440700F1CA
:10289800E480020700F1D280C60600F1C0808506F8
:1028A80000F1AE80440600F19C80020600F18A80A7
:1028B800C60578D4850567D4440556D4020545D4A1
:1028C800C60434D4850423D4440412D4020401D4A5
:1028D800BDE8F08F1A6822F040421A601A6842EA8E
:1028E80087771F60DA6822F0404242EA8171D96036
:1028F800EEE71A6822F040521A601A6842EA077234
:102908001A60DA6822F0405242EA0172DA60DDE7C2
:102918001A6822F040621A601A6842EA87621A60EE
:10292800DA6822F0406242EA8162DA60CCE71A682B
:1029380022F040721A601A6842EA07621A60DA687E
:1029480022F0407242EA0162DA60BBE71A6822F4B8
:1029580040021A601A6842EA87521A60DA6822F45A
:10296800400242EA8152DA60AAE71A6822F4401269
:102978001A601A6842EA07521A60DA6822F44012AA
:1029880042EA0152DA6099E71A6822F440221A6092
:102998001A6842EA87421A60DA6822F4402242EA58
:1029A8008142DA6088E71A6822F440321A601A68AD
:1029B80042EA07421A60DA6822F4403242EA0142E7
:1029C800DA6077E71A6822F440421A601A6842EA25
:1029D80087321A60DA6822F4404242EA8132DA60C9
:1029E80066E71A6822F440521A601A6842EA073207
:1029F8001A60DA6822F4405242EA0132DA6054E797
:102A08001A6822F440621A601A6842EA87221A6039
:102A1800DA6822F4406242EA8122DA6042E71A6800
:102A280022F440721A601A6842EA07221A60DA68C9
:102A380022F4407242EA0122DA6030E71A6822F092
:102A4800C0021A601A6842EA87121A60DA6822F02D
:102A5800C00242EA8112DA601EE71A6822F03002E8
:102A68001A601A6842EA07121A60DA6822F030021D
:102A780042EA0112DA600CE71A6822F00C021A60C6
:102A88001A6842EA87021A60DA6822F00C0242EAFF
:102A98008102DA60FAE61A6822F003021A601A68FC
:102AA8003A431A60DA6822F003020A43DA60EAE677
:102AB800034D6E6934436C61BFE600BF846103084F
:102AC8000010024000224FF0010C4FF003090CFAED
:102AD80002F636EA00042ED15400D3F808A009FA09
:102AE80004F5ED4305EA0A0AC3F808A0D3F808B0CC
:102AF8000EFA04FA4AEA0B0AC3F808A0B3F804A0CD
:102B08002AEA06069E80B3F804A008FA02F646EA06
:102B18000A06B6B29E801E682E401E60D3F800A03A
:102B280007FA04F646EA0A061E60DE6801FA04F4AB
:102B380035402C43DC600132102AC8D1C8E6054D67
:102B4800EE693443EC6178E6024DAE693443AC611A
:102B580073E600BF0010024010B50409013C052CC3
:102B680017D80E4B33F8142000F00F0042FA00F388
:102B780013F001030FD0012303FA00F001381040CD
:102B88002FF09CFE064A074B125D104403EBC00071
:102B980010BD002010BD184610BD00BF68630308B3
:102BA80074630308F46500202DE9F8432F4D2A6962
:102BB800EB6812EA030826D02D4E4FF00047B8FA0A
:102BC80088F327FA03F2D2431B3B2A6108EA02087A
:102BD800042B15D8DFE803F0372D23190300D6F8A6
:102BE8001431002B39D1EB6A1FFA83F9D6F810415A
:102BF80034B123682046494698476468002CF8D1C8
:102C0800B8F1000FDBD1BDE8F883D6F8F000696BA6
:102C1800036889B29847B8F1000FD0D1F3E7D6F826
:102C2800F400A96B036889B29847B8F1000FC6D1C0
:102C3800E9E7D6F8F800E96B036889B29847B8F174
:102C4800000FBCD1DFE7D6F8FC00296C036889B215
:102C58009847B8F1000FB2D1D5E703F1FF39002347
:102C68001FFA89F9C6F81431C0E700BF00480140CF
:102C7800AC6300202DE9F8432F4D2A69EB6812EA6E
:102C8800030826D02D4E4FF00047B8FA88F327FAEC
:102C980003F2D2431B3B2A6108EA0208042B15D829
:102CA800DFE803F0372D23190300D6F8C430002BD2
:102CB80039D1EB6A1FFA83F9D6F8C04034B12368DA
:102CC8002046494698476468002CF8D1B8F1000FAF
:102CD800DBD1BDE8F883D6F8A000696B036889B238
:102CE8009847B8F1000FD0D1F3E7D6F8A400A96B44
:102CF800036889B29847B8F1000FC6D1E9E7D6F85A
:102D0800A800E96B036889B29847B8F1000FBCD1F5
:102D1800DFE7D6F8AC00296C036889B29847B8F1A8
:102D2800000FB2D1D5E703F1FF3900231FFA89F963
:102D3800C6F8C430C0E700BF00400140AC630020C3
:102D48002DE9F8432E4D2A69EB6812EA030826D0CC
:102D58002C4E4FF00047B8FA88F327FA03F2D24313
:102D68001B3B2A6108EA0208042B15D8DFE803F0A8
:102D7800352B22190300D6F89C30002B37D1EB6A8B
:102D88001FFA83F9D6F8984034B12368204649469B
:102D980098476468002CF8D1B8F1000FDBD1BDE882
:102DA800F883B06F696B036889B29847B8F1000F70
:102DB800D1D1F4E7F06FA96B036889B29847B8F1ED
:102DC800000FC8D1EBE7D6F88000E96B036889B239
:102DD8009847B8F1000FBED1E1E7D6F88400296C16
:102DE800036889B29847B8F1000FB4D1D7E703F167
:102DF800FF3900231FFA89F9C6F89C30C2E700BFE3
:102E080000080040AC6300202DE9F8432B4D2A69E7
:102E1800EB6812EA030824D0294E4FF00047B8FAAD
:102E280088F327FA03F2D2431B3B2A6108EA020817
:102E3800042B13D8DFE803F0322920170300736F3F
:102E4800002B34D1EB6A1FFA83F9346F34B123684D
:102E58002046494698476468002CF8D1B8F1000F1D
:102E6800DDD1BDE8F883306D696B036889B2984796
:102E7800B8F1000FD3D1F4E7706DA96B036889B27C
:102E88009847B8F1000FCAD1EBE7B06DE96B03685A
:102E980089B29847B8F1000FC1D1E2E7F06D296C0B
:102EA800036889B29847B8F1000FB8D1D9E703F1A0
:102EB800FF3900231FFA89F97367C6E70004004049
:102EC800AC6300202DE9F8434FF080452A69EB6890
:102ED80012EA030824D0294E4FF00047B8FA88F3C5
:102EE80027FA03F2D2431B3B2A6108EA0208042BA3
:102EF80013D8DFE803F0322920170300F36C002B06
:102F080034D1EB6A1FFA83F9B46C34B123682046D4
:102F1800494698476468002CF8D1B8F1000FDDD114
:102F2800BDE8F883B06A696B036889B29847B8F15D
:102F3800000FD3D1F4E7F06AA96B036889B2984708
:102F4800B8F1000FCAD1EBE7306BE96B036889B2BF
:102F58009847B8F1000FC1D1E2E7706B296C03689C
:102F680089B29847B8F1000FB8D1D9E703F1FF3912
:102F780000231FFA89F9F364C6E700BFAC63002099
:102F88002DE9F8435A4D2A69EB6812EA030825D05F
:102F9800584E4FF00047B8FA88F327FA03F2D243A5
:102FA8001B3B2A6108EA0208042B14D8DFE803F067
:102FB8004A41382F0300736A002B40F09280EB6A75
:102FC8001FFA83F9346A34B1236820464946984782
:102FD8006468002CF8D1B8F1000FDCD1464D2A699D
:102FE800EB6812EA03084AD0424E4FF00047B8FA9D
:102FF80088F327FA03F2D2431B3B2A6108EA020846
:10300800042B39D8DFE803F05B51473D27003068CF
:10301800696B036889B29847B8F1000FBBD1DDE747
:103028007068A96B036889B29847B8F1000FB2D1EC
:10303800D4E7B068E96B036889B29847B8F1000F24
:10304800A9D1CBE7F068296C036889B29847B8F131
:10305800000FA0D1C2E7D6F8EC30002B39D1EB6ACB
:103068001FFA83F9D6F8E84034B123682046494668
:1030780098476468002CF8D1B8F1000FB7D1BDE8C3
:10308800F883D6F8C800696B036889B29847B8F125
:10309800000FACD1F3E7D6F8CC00A96B036889B26E
:1030A8009847B8F1000FA2D1E9E7D6F8D000E96B4C
:1030B800036889B29847B8F1000F98D1DFE7D6F8CE
:1030C800D400296C036889B29847B8F1000F8ED1F3
:1030D800D5E703F1FF3900231FFA89F9C6F8EC3068
:1030E800C0E703F1FF3900231FFA89F9736269E722
:1030F800002C0140AC630020004401402DE9F84356
:103108002B4D2A69EB6812EA030824D0294E4FF0A8
:103118000047B8FA88F327FA03F2D2431B3B2A6127
:1031280008EA0208042B13D8DFE803F03229201735
:103138000300736A002B34D1EB6A1FFA83F9346AEF
:1031480034B123682046494698476468002CF8D172
:10315800B8F1000FDDD1BDE8F8833068696B03680A
:1031680089B29847B8F1000FD3D1F4E77068A96B1A
:10317800036889B29847B8F1000FCAD1EBE7B06885
:10318800E96B036889B29847B8F1000FC1D1E2E74B
:10319800F068296C036889B29847B8F1000FB8D174
:1031A800D9E703F1FF3900231FFA89F97362C6E7EB
:1031B800002C0140AC630020F0B506684D4CB30A02
:1031C800A34200F094800AD94B4CA34200F08980B6
:1031D8000134A34266D0023CA34267D0F0BD4A3C0A
:1031E800A34200F081800134A34205D0B3F5801FCB
:1031F800F4D14827012501E09827032590F805C058
:1032080002232CFA03F084468340A800002955D0F5
:10321800D6F80CE044190CEB440C9BB2374C43EA4B
:103228000E030CF1040E44F82C1044F82E20F36021
:10323800E319EFF31181502282F31288421904EB4B
:10324800C202D2F810C0BCF1000F03D044F807C086
:1032580013690433421904EBC202576917B11F609E
:1032680053690433421904EBC202976917B11F600E
:1032780093690433421904EBC202D76917B11F607E
:10328800D36904330022C9B21A6081F31188284433
:1032980004EBC004236A63B9F3684FF6FE72134067
:1032A800F360F0BD4FF488770625A7E7C02704250B
:1032B800A4E7F36843F00103F360F0BDD6F80CE02F
:1032C8000E4CDB439BB203EA0E0300EB050E0CEB3E
:1032D8004E0CF3600CF1040344F82C1044F823203E
:1032E800A6E7E827052589E77027022586E720272E
:1032F800002583E74B00100051001000AC6300204C
:1033080030B503685A4D18885A4CB4FBF2F20139AB
:10331800013AAB4294B283B089B282B20DD056481A
:1033280083420AD0B3F1804F07D0A0F5983083428A
:1033380003D000F58060834202D122F0700292B27D
:103348004E4883426AD000F58060834241D022F41F
:10335800407200F58C3092B283421A80D9621C8583
:1033680065D100221A8601225A611A88404942F022
:1033780001028B421A806AD0B3F1804F69D0404A6B
:10338800934268D002F58062934266D002F50062EB
:10339800934264D002F58062934262D002F5903283
:1033A800934260D002F5406293425ED002F580629B
:1033B800934217D002F58062934208BF092212D0C7
:1033C80002A84FF0012340F8043D2DF0D5FD03B0CD
:1033D80030BD01201A80D9621C8558611A880243C1
:1033E8001A80C9E70822274B03EBC20301A893F808
:1033F80095408DF80440012300228DF805308DF8A2
:1034080007308DF806202DF0B7FD1B2CDFD11E4BA1
:10341800019301A82DF0B0FD03B030BD01201A8042
:10342800D9621C8558611A8802431A80A7E7124A94
:10343800934296D002F54062934292D002F58062A0
:1034480093428ED002F5806293428AD08BE70022A5
:10345800C9E70122C7E70222C5E70322C3E704221E
:10346800C1E70522BFE70622BDE70722BBE700BF89
:10347800002C014000A24A04003401400010004022
:10348800000400405438030819010001204B9842F9
:103498002DD0B0F1804F2CD0A3F5943398422AD088
:1034A80003F58063984228D003F50063984226D03C
:1034B80003F58063984224D003F59033984222D0D4
:1034C80003F54063984220D003F58063984207D003
:1034D80003F58063984208BF092202D00020704794
:1034E80008220C4B03EBC20393F8940070470022A8
:1034F800F7E70122F5E70222F3E70322F1E70422C6
:10350800EFE70522EDE70622EBE70722E9E700BF30
:10351800002C0140543803082DE9F04F013083B0E6
:10352800C3B20193884C894E894DDFF838820A234B
:103538009B4629F00DFDDFF820C24FF4FA7A4FF0D0
:10354800100E4FF47A77DCF80430C3F30803002B2D
:1035580040F0DD80EFF31183002B40F0D880216824
:10356800AA6800BF23689942F9D1306807FB00F3C5
:103578009A1AB2FBF0F207FB0121DCF80430C3F31E
:103588000803002B40F08880EFF31183002B40F0F4
:1035980083802368A86800BF22689342F9D1D6F8CF
:1035A800009007FB09F2101AB0FBF9F007FB0303C0
:1035B8005B1AB3F57A7FE0D3BAF1010AC3D1019857
:1035C80029F03CFB4FF47A7ADFF88CC157464FF06C
:1035D800100EDCF80430C3F30803002B7BD1EFF3A3
:1035E8001183002B77D12168AA6800BF236899420C
:1035F800F9D1306807FB00F39A1AB2FBF0F207FB27
:103608000121DCF80430C3F3080333BBEFF3118363
:103618001BBB2368A86800BF22689342F9D1D6F87B
:10362800009007FB09F2101AB0FBF9F007FB03033F
:103638005B1AB3F57A7FE4D3BAF1010AC9D15B46C4
:10364800013B9B467FF475AF4249434B4348444A8C
:103658000860DA6003B0BDE8F08FEFF311808EF3F5
:103668001288D5F808902B68DB0304D50123C8F825
:103678000030D5F808902368D8F80020C0B280F34D
:1036880011883068134407FB00F2A2EB0902B2FB71
:10369800F0F207FB0323CBE7EFF311808EF31288D8
:1036A800D5F808902B68DB0304D50123C8F800304F
:1036B800D5F808902368D8F80020C0B280F31188A4
:1036C8003068134407FB00F2A2EB0902B2FBF0F2E8
:1036D80007FB03236CE7EFF311828EF31288A868C7
:1036E8002B68D90303D50123C8F80030A8682368DC
:1036F800D8F80010D2B282F311883268194407FB57
:1037080002F31B1AB3FBF2F307FB013179E7EFF37E
:1037180011828EF31288A8682B68D90303D5012378
:10372800C8F80030A8682368D8F80010D2B282F32D
:1037380011883268194407FB02F31B1AB3FBF2F332
:1037480007FB013119E700BF906300209463002054
:1037580010E000E0FC9F002000ED00E0EFBEADDED1
:103768000400FA058C6300202DE9F04F83B08E4DDC
:10377800DFF8408201908B460BF1FF339B46013303
:1037880000F00E8129F0E4FB884C894FDFF828C24D
:103798004FF4FA7A4FF0100E4FF47A76DCF80430D2
:1037A800C3F30803002B40F0DF80EFF31183002BF5
:1037B80040F0DA802168AA6800BF23689942F9D1ED
:1037C800386806FB00F39A1AB2FBF0F206FB0121F7
:1037D800DCF80430C3F30803002B40F0A680EFF3B5
:1037E8001183002B40F0A1802368A86800BF2268DD
:1037F8009342F9D1D7F8009006FB09F2101AB0FBF2
:10380800F9F006FB03035B1AB3F57A7FE0D3BAF14C
:10381800010AC3D1019B581CC0B229F00FFADFF886
:1038280098C1DCF804304FF47A7AC3F3080356469B
:103838004FF0100E002B38D1EFF31183002B34D149
:103848002168AA6800BF23689942F9D1386806FB45
:1038580000F39A1AB2FBF0F206FB0121DCF80430FF
:10386800C3F30803002B41D1EFF31183002B3DD1A3
:103878002368A86800BF22689342F9D1D7F800905E
:1038880006FB09F2101AB0FBF9F006FB03035B1AFA
:10389800B3F57A7FE2D3BAF1010A3FF46DAFDCF8F1
:1038A8000430C3F30803002BC6D0EFF311828EF364
:1038B8001288A8682B68D90303D50123C8F80030FB
:1038C800A8682368D8F80010D2B282F311883A6841
:1038D800194406FB02F31B1AB3FBF2F306FB013192
:1038E800DCF80430C3F30803002BBDD0EFF31180DC
:1038F8008EF31288D5F808902B68DB0304D50123D2
:10390800C8F80030D5F808902368D8F80020C0B26D
:1039180080F311883868134406FB00F2A2EB090211
:10392800B2FBF0F206FB0323B1E7EFF311808EF34D
:103938001288D5F808902B68DB0304D50123C8F852
:103948000030D5F808902368D8F80020C0B280F37A
:1039580011883868134406FB00F2A2EB0902B2FB97
:10396800F0F206FB03234EE7EFF311828EF3128881
:10397800A8682B68D90303D50123C8F80030A868C4
:103988002368D8F80010D2B282F311883A68194433
:1039980006FB02F31B1AB3FBF2F306FB013117E730
:1039A80003B0BDE8F08F00BF10E000E09063002096
:1039B800946300208C63002000ED00E0204B5B68DE
:1039C800C3F3080330B4BBB9EFF31183A3B91D4A9D
:1039D8001D481368846800BF11688B42F9D11B4ADF
:1039E80011684FF47A7202FB01F0001B30BCB0FB87
:1039F800F1F002FB03007047EFF31182102383F309
:103A080012881149124D8C680B68DB0344BF0123EF
:103A18002B600C4B48BF8C681B682868D2B282F3B5
:103A280011880A4A11684FF47A72184402FB01F3AC
:103A38001B1B30BCB3FBF1F302FB0030704700BF27
:103A480000ED00E09063002010E000E094630020A7
:103A58008C6300202DE9F84F0746264E264DFFF7C8
:103A6800ADFF264A2649DFF89CC04FF0100E4FF4F0
:103A78007A744FF001086B68C3F30803CBB9EFF30E
:103A88001183B3B91368D1F808A000BFD2F8009029
:103A98004B45F7D1D6F8009004FB09FBABEB0A0ABB
:103AA800BAFBF9FA04FB03A31B1ABB42E3D3BDE834
:103AB800F88FEFF3118A8EF31288D1F808B00B68EB
:103AC800DB0344BFCCF80080D1F808B01368DCF8F9
:103AD80000905FFA8AFA8AF31188D6F800A04B445E
:103AE80004FB0AF9A9EB0B09B9FBFAF904FB0393E8
:103AF800DAE700BF9463002000ED00E09063002047
:103B080010E000E08C6300202DE9F84F2A4C2B4E82
:103B18002B4D2C4F804618F1FF384AD3FFF74EFF44
:103B280029494B68C3F308034FF0100C4FF47A721D
:103B38004FF0010EEBB9EFF31183D3B92368D5F831
:103B480008A000BFD4F800904B45F7D1D6F80090F4
:103B580002FB09FBABEB0A0ABAFBF9FA02FB03A367
:103B68001B1AB3F57A7FD6D24B68C3F30803002B30
:103B7800E1D0EFF3118A8CF31288D5F808B02B68DE
:103B8800DB0344BFC7F800E0D5F808B02368D7F8CE
:103B980000905FFA8AFA8AF31188D6F800A04B449D
:103BA80002FB0AF9A9EB0B09B9FBFAF902FB03932B
:103BB800D6E7BDE8F88F00BF90630020946300202B
:103BC80010E000E08C63002000ED00E030B4EFF37B
:103BD8001183102282F312880649074C0A680748A5
:103BE800013200250A602560DBB2026883F3118880
:103BF80030BC7047906300208C63002010E000E028
:103C08001D4B70B59C68236D626BDD69CAB1A36BEF
:103C180033B12B0700D470BD236D08221A6270BD22
:103C28002A06F6D5D4E909028242216D11D0501C2A
:103C3800A669A062B25C26690A85B042E9D3A3628C
:103C4800E7E7A906E3D5E26A42B1988C216B904771
:103C5800DDE70B6823F080030B60DAE7E1699B8CF2
:103C68006069DBB24E1CE6614354E169E36899423E
:103C780028BFE261CBE700BF744600201D4B70B53A
:103C88005C68236D626BDD69CAB1A36B33B12B0726
:103C980000D470BD236D08221A6270BD2A06F6D5BD
:103CA800D4E909028242216D11D0501CA669A06294
:103CB800B25C26690A85B042E9D3A362E7E7A906A0
:103CC800E3D5E26A42B1988C216B9047DDE70B6837
:103CD80023F080030B60DAE7E1699B8C6069DBB253
:103CE8004E1CE6614354E169E368994228BFE261EA
:103CF800CBE700BF744600201D4B70B51C68236DD0
:103D0800626BDD69CAB1A36B33B12B0700D470BDF8
:103D1800236D08221A6270BD2A06F6D5D4E9090275
:103D28008242216D11D0501CA669A062B25C26693E
:103D38000A85B042E9D3A362E7E7A906E3D5E26AB8
:103D480042B1988C216B9047DDE70B6823F0800324
:103D58000B60DAE7E1699B8C6069DBB24E1CE661B7
:103D68004354E169E368994228BFE261CBE700BFA9
:103D780074460020002A12DD70B504460D468E18E0
:103D8800236820469B6898470028F9D0236815F8CF
:103D9800011B1B6820469847B542F1D170BD70479A
:103DA80003685B6A03B11847704700BF03681B6A62
:103DB80003B11847704700BF03682DE9F041DD697A
:103DC8001DB12B46BDE8F0411847002A174611DD02
:103DD80004460E460F4400E023689B682046984737
:103DE8000028F9D0236816F8011B1B68204698475D
:103DF800BE42F1D1BDE8F08103689B69184700BF56
:103E08000368DB68184700BF03689B68184700BF52
:103E180003685B68184700BF03681B68184700BF42
:103E2800014BD3F83801F7E700240020054B53F87D
:103E3800203033B11A689B88918A0B4218BF1B0443
:103E4800936170475C630020036803F138422DE9F1
:103E5800F04F920AA74DAA5C02F01F0552090124EF
:103E6800022A04FA05F400F09F81032A00F09781E2
:103E7800012A00F0518101F003077A1E012AC1F3DB
:103E8800810EC1F300188488C1F3411140F24981C1
:103E9800E60700F13181A50700F11A81600700F1FA
:103EA8000581220700F1F080E60600F1DB80A50617
:103EB80000F1C680600600F1B180220600F19C8006
:103EC800E60500F18780A50572D460055FD4220558
:103ED8004CD4E60439D4A50426D4600413D42204AF
:103EE80001D4BDE8F08F1A6822F040421A601A68BF
:103EF80042EA87771F60DA6822F0404242EA81711D
:103F0800D960BDE8F08F1A6822F040521A601A682A
:103F180042EA07721A60DA6822F0405242EA0172F5
:103F2800DA602204DDD5DEE71A6822F040621A6002
:103F38001A6842EA87621A60DA6822F0406242EA46
:103F480081626004DA60CAD5DDE71A6822F040723F
:103F58001A601A6842EA07621A60DA6822F0407248
:103F680042EA0162A504DA60B7D5DDE71A6822F4EF
:103F780040021A601A6842EA87521A60DA6822F424
:103F8800400242EA8152E604DA60A4D5DDE71A6805
:103F980022F440121A601A6842EA07521A60DA6874
:103FA80022F4401242EA0152DA60220591D5DDE797
:103FB8001A6822F440221A601A6842EA87421A6094
:103FC800DA6822F4402242EA81426005DA607FF52D
:103FD8007EAFDCE71A6822F440321A601A6842EAB7
:103FE80007421A60DA6822F4403242EA0142A50523
:103FF800DA607FF56AAFDBE71A6822F440421A609C
:104008001A6842EA87321A60DA6822F4404242EAC1
:104018008132E605DA607FF556AFDBE71A6822F4ED
:1040280040521A601A6842EA07321A60DA6822F4C3
:10403800405242EA0132DA6022067FF541AFDBE7FF
:104048001A6822F440621A601A6842EA87221A60E3
:10405800DA6822F4406242EA81226006DA607FF57B
:104068002CAFDBE71A6822F440721A601A6842EA39
:1040780007221A60DA6822F4407242EA0122A50691
:10408800DA607FF517AFDBE71A6822F0C0021A6022
:104098001A6842EA87121A60DA6822F0C00242EA15
:1040A8008112E606DA607FF502AFDBE71A6822F0D4
:1040B80030021A601A6842EA07121A60DA6822F0B7
:1040C800300242EA0112DA6022077FF5EDAEDBE743
:1040D8001A6822F00C021A601A6842EA87021A600B
:1040E800DA6822F00C0242EA81026007DA607FF5A2
:1040F800D8AEDBE7846103081A6822F003021A606D
:104108001A683A431A60DA6822F003020A43A507DC
:10411800DA607FF5C3AEDBE7264A55692C43546164
:10412800A9E600224FF0010C4FF003090CFA02F641
:1041380036EA04002ED15000D3F808A009FA00F599
:10414800ED430AEA050AC3F808A0D3F808B00EFA46
:1041580000FA4AEA0B0AC3F808A0B3F804A02AEA4E
:1041680006069E80B3F804A008FA02F646EA0A0694
:10417800B6B29E801E682E401E60D3F800A007FAD3
:1041880000F646EA0A061E60DE6801FA00F03540CD
:104198002843D8600132102AC8D1BDE8F08F054AFB
:1041A800D5692C43D46166E6024A95692C4394612B
:1041B80061E600BF001002402DE9F04F4A484B4B22
:1041C8004B4C4FF090414FF0010A4FF002094FF06D
:1041D80004084FF0080E4FF0100C202740268025C9
:1041E80030F8022B12F0010F03D01960A3F804A0D5
:1041F800083312F0020F03D01960A3F804900833B3
:1042080012F0040F03D01960A3F80480083312F0E9
:10421800080F03D01960A3F804E0083312F0100F58
:1042280003D01960A3F804C0083312F0200F02D09D
:1042380019609F80083312F0400F02D019609E80E9
:10424800083312F0800F02D019609D80083312F4F1
:10425800807F05D04FF4807B1960A3F804B0083341
:1042680012F4007F05D04FF4007B1960A3F804B066
:10427800083312F4806F05D04FF4806B1960A3F8EF
:1042880004B0083312F4006F05D04FF4006B1960C6
:10429800A3F804B0083312F4805F05D04FF4805BB4
:1042A8001960A3F804B0083312F4005F05D04FF486
:1042B800005B1960A3F804B0083312F4804F05D0EE
:1042C8004FF4804B1960A3F804B00833D20B04D024
:1042D8004FF4004219609A80083301F58061A142C9
:1042E8007FF47EAFBDE8F08F68630308F4650020B3
:1042F8000018004800B97047036803F138422DE9F7
:10430800F04F920AB24DAA5C02F01F05520901242F
:10431800022A04FA05F400F05F81032A00F05381B1
:10432800012A00F00D8101F003077A1E012AC1F36A
:10433800810EC1F300188488C1F3411140F2058150
:10434800E6070BD51A6822F003021A601A683A4386
:104358001A60DA6822F003020A43DA60A5070DD56D
:104368001A6822F00C021A601A6842EA87021A6078
:10437800DA6822F00C0242EA8102DA6060070DD5A1
:104388001A6822F030021A601A6842EA07121A60A4
:10439800DA6822F0300242EA0112DA6022070DD50B
:1043A8001A6822F0C0021A601A6842EA87121A6074
:1043B800DA6822F0C00242EA8112DA60E6060DD518
:1043C8001A6822F440721A601A6842EA07221A60D0
:1043D800DA6822F4407242EA0122DA60A5060DD5B5
:1043E8001A6822F440621A601A6842EA87221A6040
:1043F800DA6822F4406242EA8122DA6060060DD56A
:104408001A6822F440521A601A6842EA07321A609F
:10441800DA6822F4405242EA0132DA6022060DD507
:104428001A6822F440421A601A6842EA87321A600F
:10443800DA6822F4404242EA8132DA60E6050DD5B4
:104448001A6822F440321A601A6842EA07421A606F
:10445800DA6822F4403242EA0142DA60A5050DD555
:104468001A6822F440221A601A6842EA87421A60DF
:10447800DA6822F4402242EA8142DA6060050DD50A
:104488001A6822F440121A601A6842EA07521A603F
:10449800DA6822F4401242EA0152DA6022050DD5A8
:1044A8001A6822F440021A601A6842EA87521A60AF
:1044B800DA6822F4400242EA8152DA60E6040DD555
:1044C8001A6822F040721A601A6842EA07621A6093
:1044D800DA6822F0407242EA0162DA60A5040DD57A
:1044E8001A6822F040621A601A6842EA87621A6003
:1044F800DA6822F0406242EA8162DA6060040DD52F
:104508001A6822F040521A601A6842EA07721A6062
:10451800DA6822F0405242EA0172DA6022040DD5CC
:104528001A6822F040421A601A6842EA87771F60C8
:10453800DA6822F0404242EA8171D960BDE8F08F22
:10454800244A55692C435461EDE600224FF0010CD2
:104558004FF003090CFA02F636EA04002ED1500097
:10456800D3F808A009FA00F5ED430AEA050AC3F8EA
:1045780008A0D3F808B00EFA00FA4AEA0B0AC3F802
:1045880008A0B3F804A02AEA06069E80B3F804A09F
:1045980008FA02F646EA0A06B6B29E801E682E405F
:1045A8001E60D3F800A007FA00F646EA0A061E6065
:1045B800DE6801FA00F035402843D8600132102A3D
:1045C800C8D1BDE8F08F034AD5692C43D461AAE667
:1045D8008461030800100240024A95692C439461E3
:1045E800A1E600BF0010024010B1036882881A8556
:1045F800704700BF10B1036882889A61704700BF96
:1046080018B1838811B10268936170471B04FAE7F7
:1046180010B40A4B0A4A1C7801238340234052F8FD
:10462800200029B9B3FA83F149095DF8044BE7E79B
:10463800191C18BF01215DF8044BE1E758630020FD
:104648005C63002008B501210220FFF7E1FF094B58
:104658001B7803F00503052B08D000210120FFF784
:10466800D7FF00210846FFF7D3FFFEE713F0CEFF80
:10467800F3E700BF704600200E4B1B8801463BB98C
:104688000D4B0E4A1B7810680BB981F00101B7E792
:104698000B4B5A691AB11A6810B9106058747047F0
:1046A80008480949008891FBF0F10120116058740D
:1046B800704700BF686300206A6300206C630020B5
:1046C800706300208863002020A1070030B10268D1
:1046D8008388128A1A4214BF01200020704700BF45
:1046E8002DE9F0410C4E356873691D4011D0DFF893
:1046F8002C800127B5FA85F4C4F11F0408EB840364
:1047080007FA04F4D3F83C0103689847A543746199
:10471800F0D1BDE8F08100BF000401400024002072
:104728002DE9F0410C4E356873691D4011D0DFF852
:104738002C800127B5FA85F4C4F11F0408EB840323
:1047480007FA04F4D3F83C0103689847A543746159
:10475800F0D1BDE8F08100BF000401400024002032
:104768002DE9F0410C4E356873691D4011D0DFF812
:104778002C800127B5FA85F4C4F11F0408EB8403E3
:1047880007FA04F4D3F83C0103689847A543746119
:10479800F0D1BDE8F08100BF0004014000240020F2
:1047A8002DE9F0410C4E356873691D4011D0DFF8D2
:1047B8002C800127B5FA85F4C4F11F0408EB8403A3
:1047C80007FA04F4D3F83C0103689847A5437461D9
:1047D800F0D1BDE8F08100BF0004014000240020B2
:1047E8002DE9F0410C4E356873691D4011D0DFF892
:1047F8002C800127B5FA85F4C4F11F0408EB840363
:1048080007FA04F4D3F83C0103689847A543746198
:10481800F0D1BDE8F08100BF000401400024002071
:104828002DE9F0410C4E356873691D4011D0DFF851
:104838002C800127B5FA85F4C4F11F0408EB840322
:1048480007FA04F4D3F83C0103689847A543746158
:10485800F0D1BDE8F08100BF000401400024002031
:104868002DE9F0410C4E356873691D4011D0DFF811
:104878002C800127B5FA85F4C4F11F0408EB8403E2
:1048880007FA04F4D3F83C0103689847A543746118
:10489800F0D1BDE8F08100BF0004014000240020F1
:1048A800002800F088802DE9F0418488B4FA84F467
:1048B800C4F11F04651C82B002D102B0BDE8F081CA
:1048C800E6B206F0FC0505F1804505F5803506F0F1
:1048D8000306D5F808C0384F0068B6004FF00F0E31
:1048E8000EFA06FE2CEA0E0C07EB840EC0F38720A6
:1048F800CEF83C11C5F808C0D5F80880DFF8C4E048
:10490800DFF8C4C000FA06F10120A04041EA08011E
:10491800A960CEF80000DCF80050284EDFF8AC8023
:10492800C1430D40CCF8005035680D403560DCF8C7
:104938000050234E0543CCF80050D8F800500D40E5
:10494800C8F800505EF8085C34442940102B4EF833
:10495800081C94F8E040AEF1080E21D003F1804322
:1049680003F58233196801431960274497F87C31AD
:104978009342A2DD2644002196F8F0308DF80430E9
:104988009411012301A887F87C218DF805408DF842
:1049980006108DF807302CF0EFFA02B0BDE8F08170
:1049A800D8F800300343C8F80030DEF8001001439F
:1049B800CEF80010D9E77047002400200404014015
:1049C800543803081404014000040140080401405D
:1049D8000C490D4A8B6943F0010310B58B611368CC
:1049E8000A4C43F48053136004F59E704022002162
:1049F8002EF0E0FA4FF0FF33C4F87C31C4F87F3171
:104A080010BD00BF0010024000000140002400203B
:104A180003685B6A184700BF03681B6A184700BF32
:104A280070B44E1C0568C2728672AC69A44670BC2C
:104A3800604700BF2DE9F041044618460D4616466A
:104A48001F462DF0F5F92844A0722068E672294621
:104A580045693B4632462046AC46BDE8F0416047D2
:104A6800036810B504461B689847236820469B686E
:104A78009847A37B0133A37310BD00BF03681B696C
:104A8800184700BF10B5036804469B689847FF2382
:104A980001226373227310BD064B984202D04FF077
:104AA800FF307047044A538B01339BB25383508BBA
:104AB80080B270470038004028630020F8B5848928
:104AC8004FF6FF764FF47A742BB311B30F78013198
:104AD80001E0B44217D00589013CAD07A4B2F8D56E
:104AE80007734FF47A7402E0BCB2B4420BD0058964
:104AF800ED0704F1FF37F7D5057BEDB20AB1157064
:104B08000132013BE0E7FFF7C7FF003018BF012083
:104B1800F8BDFF27DFE70120F8BD00BFF8B503782F
:104B2800012B47D0022B4BD1836801F07F0113B1D1
:104B38001C689B88238504461546406840F2E93383
:104B480002E0002B00F0A5800289013B12F0020F61
:104B58009BB2F6D0017340F2E93302E0002B00F07B
:104B680098800289013B12F0010F9BB2F6D0037BBB
:104B7800606840F2E93302E0002B00F08780018989
:104B8800013B11F0020F9BB2F6D0057340F2E933F6
:104B980001E0002B7AD00289013B12F0010F9BB291
:104BA800F7D0037BA368002B6ED01A689B889361AB
:104BB8000120F8BD90F904305C1C01D0022B01DD06
:104BC8000020F8BD484C03EB830304EB83035B68C8
:104BD800002B75D04579454E6D004FF42040EDB25D
:104BE800C6F884019C69270400F1FF3041D45C6851
:104BF8003F4F45F080703C4040F4903020434FF4E4
:104C080020445860C6F8844101E0671C5AD098696E
:104C180010F0020004F1FF34F7D04FF420409962FD
:104C2800C6F88401014601E04F1C1AD0986910F0BB
:104C3800800001F1FF31F7D059682D4845F0007523
:104C4800014045F480350D434FF420415D60C6F8BE
:104C58008411986910F0020001F1FF311CD14C1C3D
:104C6800F7D1244AC6F88411138801339BB2138004
:104C7800F8BD441CB6D11F4AC6F884011388013315
:104C88009BB213800020F8BD0120F8BDFFF704FF98
:104C980088E7FFF701FF6BE74FF420419A62C6F8F7
:104CA80084110A4602E012F1FF3213D3996911F018
:104CB8002001F8D02021C6F88421D9610120F8BD4F
:104CC8001846F8BD0B4AC6F88441138801339BB2D5
:104CD8001380F8BD074CC6F88421238801339BB2A2
:104CE80008462380F8BD00BF984600200024002015
:104CF800009800FC602F00202DE9F04F85B090F857
:104D080058300090002B40F0DB80009BA34CA44E51
:104D1800A44FA54DDFF8B0821033184680226B21CE
:104D28000193FFF7FBFE4FF0640A4FF01009FEF7FE
:104D380045FE4FF47A714FF0010C7B68C3F308030A
:104D4800002B40F09D80EFF31183002B40F09880FA
:104D580086462368A86800BF22689342F9D10246B4
:104D680070469646326801FB02FBABEB0E0EBEFBAB
:104D7800F2FE01FB03E31B1AB3F57A7FDDD3BAF128
:104D8800010AD4D1DDF80490864F874DDFF83882C8
:104D980003226B214846FFF7C1FE009B484693F863
:104DA80057201921FFF7BAFE4FF00F0A4FF01009EC
:104DB800FEF704FE4FF47A714FF0010C7B68C3F3E1
:104DC8000803002B3CD1EFF31183002B38D1864622
:104DD8002368A86800BF22689342F9D1024670464A
:104DE8009646326801FB02FBABEB0E0EBEFBF2FEF1
:104DF80001FB03E31B1AB3F57A7FDFD3BAF1010A8B
:104E0800D6D1009B019C93F856201A212046FFF723
:104E180085FE18221B212046FFF780FE18221C2140
:104E28002046FFF77BFE022237212046FFF776FE59
:104E3800204601223821FFF771FE05B0BDE8F08F4A
:104E4800EFF3118E89F31288D5F808B02B68DB03CD
:104E580044BFC8F800C0D5F808B02368D8F80020C7
:104E68005FFA8EFE8EF31188D6F800E0134401FB3A
:104E78000EF2A2EB0B02B2FBFEF201FB0323B9E731
:104E8800EFF3118E89F31288D5F808B02B68DA038E
:104E980044BFC8F800C0D5F808B02368D8F8002087
:104EA8005FFA8EFE8EF31188D6F800E0134401FBFA
:104EB8000EF2A2EB0B02B2FBFEF201FB03235AE750
:104EC8001C09013C052C03F00F0349D8374A32F876
:104ED800140040FA03F2D50742D5012505FA03F379
:104EE800013B18402DF0EAFC314B324A1B5D184457
:104EF80012EBC00434D052F83000A288038A134061
:104F08007FF403AF00F13841890A2B4EE371735CDB
:104F180003F01F065B092021022B05FA06F5A17193
:104F280037D0032B30D0012B29D0002302A9CDE99B
:104F3800022327F0CBFB0099204B41F80C3FF022CD
:104F480008232046FFF7ACFCA388B3FA83F3C3F128
:104F58001F03591C3FF4D9AE012202FA03F309E0FA
:104F68000099164B41F80C3FF02208230020FFF768
:104F780097FC012312490A6813430B60C5E6114BDD
:104F880059690D435D61D0E70E4BD9690D43DD6169
:104F9800CBE70C4B99690D439D61C6E790630020F0
:104FA8009463002000ED00E010E000E0686303086F
:104FB80074630308F465002084610308F50700089A
:104FC80000040140001002408C6300202DE9F74FD7
:104FD8004FF4807343838383C38300F10C05044635
:104FE8003220FEF791FD112200212846FFF796FD99
:104FF800602201212846FFF791FD6420FEF784FD19
:1050080069462046FBF766FE112200212846FFF775
:1050180085FD0026DFF854A14FF00A09B04637464F
:10502800012202212846FFF779FD1420FEF76CFDC6
:1050380069462046FBF74EFEBDF90230BDF9041063
:10504800BDF900208B429844A8BF0B469342A8BFE5
:105058001346534517440E447DDB0120FEF7E6FE58
:10506800B9F10109DCD14FF00109122200212846CB
:10507800FFF754FDDFF8F4B04FF00A0A01220221CD
:105088002846FFF74BFD1420FEF73EFD69462046F3
:10509800FBF720FEBDF90230BDF90410BDF9002070
:1050A8008B42A8EB0308A8BF0B469342A8BF134640
:1050B8005B45A7EB0207A6EB01064FDB0120FEF7D5
:1050C800B5FEBAF1010AD9D1264B93FBF7F793FB4A
:1050D800F8F87022A3F58423002193FBF6F6678382
:1050E800A4F81C80E6832846FFF718FD202201213A
:1050F8002846FFF713FD002202212846FFF70EFD80
:105108006420FEF701FDB9F1000F04D14FF480735C
:105118006383A383E383607EC8B1FDF71DFD054665
:10512800FFF7D4FA98B11DB12223AB710023EB71BC
:10513800284627F011FB21460B4B41F8083F28462B
:105148000823F022FFF7ACFB284628F0EDF80120F1
:1051580003B0BDE8F08F4FF0000986E74FF0000973
:10516800B2E700BF00D03B003508000801F0FFFFA0
:105178003122F421D2E4044B93F8202092013432F6
:1051880002F0FC02F421C9E4503300202E22F4215D
:10519800C4E401224821C1E401225821BEE400BF31
:1051A800427A4AB110B5044604F10A01D0E9003048
:1051B80098470023637210BD704700BF437A5A1C9A
:1051C8000344D2B242729972037A93420AD84AB11E
:1051D80010B5044604F10A01D0E9003098470023CD
:1051E800637210BD704700BFA8B10D4B012210B407
:1051F80002FA01F103F1750402E00333A3420BD074
:1052080013F8012C8242F8D11A780A42F5D001200D
:105218005DF8044B7047704700205DF8044B7047F9
:105228004D39030830B40A4D002305F1F80401E0B4
:10523800272B0AD003EB43020133A15C8142F7D14B
:105248002A4430BC92F8FA007047002030BC7047FE
:1052580054380308024A136823EA000010607047B4
:10526800405400202DE9F84F0DF04EFBDFF8348351
:10527800AD4B434525D2DFF83093AC4F03F114060C
:105288009A464C462588621985B1BA420ED2052D38
:105298000CD936F8143C6188C3F30B03994200F02B
:1052A800DF80144625886219002DEED156F8101CAF
:1052B80050460AF1140A23F061F8C24506F11406B3
:1052C800DFD39B490B78A3F11702022A0FD9994A19
:1052D80012F83300002840F0F980D80002445278D0
:1052E8002AB1954A12F83330002B00F01A81934BFB
:1052F8005A78052A40F2DD8000225A701A789048C0
:1053080090490160022A00F2DD8002EB82018E4B97
:10531800C2EBC10203EB4203998C5A8C8B4C91422D
:10532800236001D300225A84894B9A78042A00F01A
:10533800D68032B91A88B2F5F07F84BF4FF4F07284
:105348001A80844DFCF706FE2B68834A1A40002A0F
:1053580000F0DF80D80700F1DF80590400F1D48025
:105368001A0700F1CC809B0400F1C28028F0D6FD1A
:1053780010B97A4822F0DCFC8020FFF76BFF4FF46D
:105388000030FFF767FF4FF40010FFF763FF4FF09F
:105398000070FFF75FFF4FF08060FFF75BFF13F0CF
:1053A800C9FC002130226E482DF004FE206812F05E
:1053B8009FFD6C4B256803F1640102E005339942B7
:1053C80075D01A78002AF9D19C78D8788442F5D219
:1053D8006549664B0E79664CC820642111FB0601AD
:1053E8005960644822700021C3E90211C3E904111D
:1053F800C3E9061183F8201083F821105E4BC0F82A
:10540800B851C0F8BC310DF0DDF85C4B9FED5C5A2B
:105418001B885C4A9FED5C6A50795C4906EE903ABD
:10542800F8EEE66A1388C5EE265A07EE103A538856
:105438001279C1ED005A07EE903AB8EEC77AF8EE45
:10544800E77A534B27EE067A67EE867A18725A7215
:1054580083ED017AC3ED007ABDE8F84F0DF0FAB993
:1054680063799B077FF41DAF56F8101C94F804B0BD
:10547800504622F083FF36F8143CBBEB133F07D0AD
:105488000AF1140AC24506F11406FFF4FAAE18E749
:1054980036F8123C56F8100CAA1FC3F30B039A42B5
:1054A80004F10601A8BF1A462DF06AFCE8E70122BC
:1054B8008EE72449224801EB02111A780160022A7A
:1054C8007FF623AF00221A701F4B25E7D800141867
:1054D8006468002C7FF402AF17240C70FEE69A8AE9
:1054E800B2F57A7FBFF42DAF4FF47A729A8228E72B
:1054F8002848FFF7AFFE4020FFF7ACFE36E7264806
:10550800FFF7A8FE2B682EE72448FFF7A3FE2B68B9
:1055180026E743F001032B602148FFF79BFE2B6829
:105528001BE718230B70E2E6C0A403080000040878
:105538002833002084630308B8520308A74E0020CC
:10554800D4560020DA4F0020CA4E0020BC4E00205E
:105558004C7600204054002009600002C4640020FA
:105568008825002044340020983C0020B04A0020C0
:10557800AC060020002400207A2B0020AC3E00203E
:10558800C0C9FB48F462002017B7D138B03E0020EC
:10559800A83A002009400002016000020920000228
:1055A8000860000284A9030802F00308F8B5174D43
:1055B8002B78A82B28D16B78BE2B25D1022229461F
:1055C8004FF6FF70FBF7F2F8114FAC1C22884AB176
:1055D800A618BE4218D2052A16D92146FBF7E6F8C6
:1055E8003446F3E721460222FBF7E0F80222A1182D
:1055F800FBF7DCF80634074B641B1C8041F60F539D
:10560800C31A58425841F8BD0020FCE700F00308CF
:1056180000000408622F00202DE9F04FDFF84491C4
:105628004B4F8BB00326A7EB09071022002106A8D1
:105638002DF0C0FCCDE90497464B1A69120604D533
:10564800454A5A6002F188325A6001228DF82420B6
:105658003422DA60414B424C1B88ADF800300222FC
:10566800694604A8FCF756FA022269464FF6FF700D
:10567800FBF79CF8DFF8F0A080464FF0000B54458C
:1056880036D30AAC002524F8245D0222214604A85A
:10569800FCF740FA022221464046FBF787F840BA59
:1056A800C043ADF80800022202A904A8FCF732FAA8
:1056B800079860B106ABC0F10402294618442DF0E2
:1056C80079FC069904A8FCF7CBF9CDE907509DF8B9
:1056D8002430089A23B11F490B6943F080030B61FA
:1056E800013E2DD0002AA0D1FFF760FF50B32CE077
:1056F80065888DF80DB0C5F30B05AB1DADF8083006
:105708002388C3F30B02ADF80A201B0B062202A95B
:1057180004A88DF80C30FCF7FDF9062202A94046D2
:10572800FBF744F8616880462A4604A8FCF7F2F9BA
:10573800616840462A46FBF739F8143480469EE7EC
:10574800002AD1D00520FDF7E7FE0BB0BDE8F08FA9
:10575800000004080020024023016745C1390308FE
:10576800C0A4030800F0030884A9030808B50DF0D5
:10577800CBF8FFF751FF0DF06DF8FFF773FD01202F
:10578800BDE8084023F030BE2DE9F047DF4C6368E0
:1057980020469847002800F0E280DD4B1B78012264
:1057A800042B84F8342000F0DC80B4F9163006EEBF
:1057B800903AB4F9183007EE103AB4F91A3007EEF7
:1057C800903AF8EEE66AB8EEC77AF8EEE77AC4EDF2
:1057D8000A6A84ED0B7AC4ED0C7ACE4B1B88002B39
:1057E80072D0CD4DD4ED0A6AD5ED004A95ED050A83
:1057F80095ED015A95ED067AD5ED047AD5ED035A63
:1058080095ED026AA4EEA60AA5EE267A67EEC07A9E
:10581800A5EEC07AE6EE267A85ED057AC5ED067A1C
:105828002DF0A2FDD4ED0B6AD5ED094A95ED0E0ACF
:1058380095ED0A5A95ED0F7AD5ED0D7AD5ED0C5AFE
:1058480095ED0B6AA4EEA60AA5EE267A67EEC07A55
:10585800A5EEC07AE6EE267A06EE900AF8EEE66A3B
:1058680085ED0E7AC5ED0F7AC4ED0A6A2DF07CFD40
:10587800D4ED0C6AD5ED124A95ED170A95ED135A39
:1058880095ED187AD5ED167AD5ED155A95ED146A79
:10589800A6EEA40AA6EE857A67EEC07AA0EE657A2F
:1058A800E6EE867A06EE900AF8EEE66AC5ED187A14
:1058B80085ED177AC4ED0B6A2DF056FD07EE900AB8
:1058C800F8EEE77AC4ED0C7A944EA17F9448954D92
:1058D8000CF012FD3288D5F8BC31002A40F09680D1
:1058E800914A1268500759D4B3F9002094ED0B6A15
:1058F80094ED0C7A94ED0A5A8C4905EE902AB3F986
:105908000220B3F9043006EE902A07EE903AF8EE3A
:10591800E55A874B0A68D3ED003A93ED014AD3ED77
:10592800024AF8EEE66AF8EEE77A75EE655A76EE20
:10593800666A77EE677AC4ED0A5A34EE266A73EE21
:10594800A55A34EEA77A0132C3ED005AC4ED0B6AAA
:1059580083ED016AC4ED0C7A83ED027A0A60BDE832
:10596800F087B4F91600B4F91810B4F91A20714B7D
:1059780007EE900AF8EEE76A07EE901AB8EEE77AB3
:1059880007EE902AF8EEE77AC4ED0A6A1880598083
:105998009A8084ED0B7AC4ED0C7A1EE7B5F8CC2119
:1059A800322A00F0CF80002A40F0FD8095F8EA21E5
:1059B800002A99D005F5EE7007C85F4EA78A86FBC6
:1059C80002ECD217C2EB2C12D21B86FB00C786FB57
:1059D80001C6C017C917C1EB2611C0EB2710574ED7
:1059E8009A80188059800023B381F38185F8EA31C1
:1059F8000CF08AFFFFF710FE0CF02CFFFFF732FCCB
:105A0800012023F0F1FCD5F8BC316DE7B2F5C87F71
:105A180018BFD5ED707AD4ED0A6A0CBF9FED487AAD
:105A2800B8EEE77ADFED467A0022C4ED0A7A1A80EA
:105A38003288B6F8008037EE267AB2F5C87F18BFEC
:105A4800D5ED717ABDEEC77A18BFF8EEE77A17EE92
:105A5800101A85ED707A94ED0B7A77EE877A002725
:105A6800FDEEE77A0020B8F5C87FE76217EE902AC6
:105A78005880C5ED717A00F08D80D5ED727A94ED7D
:105A88000C7A2763F8EEE77AB8F1010F77EE877A98
:105A98009880FDEEE77A17EE907AC5ED727A2FD1ED
:105AA800DFF894C0B4F814E0C8378CFB07A9C831F4
:105AB800C832FF17C7EBE9178CFB01A98CFB02ACB6
:105AC800D217C2EBEC12C917DFF870C05A80A7EBE7
